:100000000C94D5090C94020A0C94020A0C94020A6E
:100010000C94020A0C94020A0C94020A0C94020A30
:100020000C94020A0C94020A0C94020A0C94020A20
:100030000C9485430C94020A0C94020A0C94020A54
:100040000C94020A0C945C250C94020A0C94020A8B
:100050000C94020A0C94020A0C94020A0C94020AF0
:100060000C94020A0C945C430C9432430C94020AE4
:100070000C94020A0C94020A0C94020A0C94020AD0
:100080000C94020A0C94020A0C94020A0C94020AC0
:100090000C94020A0C94020A0C94020A0C94020AB0
:1000A0000C94020A0C94020A0C94020A0C94020AA0
:1000B0000C94020A0C94020A0C94020A0C94020A90
:1000C0000C94020A0C94020A0C94020A0C94020A80
:1000D0000C94020A0C94020A0C94020A0C94020A70
:1000E0000C94020A0C9428230C94CF240C948A3B81
:1000F0000C94403C0C94EC290C9458360C9400362B
:100100000C9437290C94CA340C9472220C94D03E6F
:100110000C94B7390C9409350C942A2E0C94C22CEB
:100120000C9485170C94A62E0C94D91A0C94892D36
:100130000C947D160C94AC230C944C300C944236E9
:100140000C94ED220C9499350C9484230C94603516
:100150000C94731F0C9439180C94F3330C94DE3107
:100160000C9466380C94D3200C9457180C94133DBF
:100170000C9491220C9466290C942A3E0C94A1189C
:100180000C94521A0C9416210C9406370C94C61732
:100190000C9487300C94632B0C949B310C94811A33
:1001A0000C94B0220C94F8210C94421B0C94ED3763
:1001B0000C94203C0C9492200C94463E0C94EE3807
:1001C0000C942E240C94B8300C9467370C945F2355
:1001D0000C941D190C94AF370C9460160C94B43A1F
:1001E0000C949A170C94BC380C94FF2C0C94D03BB4
:1001F0000C9426430C94AA270C94CF1F0C94F62E33
:100200000C94A2190C94FB230C94C3290C94D34294
:100210000C944D360C94343D0C94EC3A0C947133A0
:100220000C94E43A0C9421210C94331B0C943B362F
:100230000C9424410C9439380C94A6210C943F1B47
:100240000C9400280C941A190C9435220C943A2F13
:100250000C94A2270C94D5300C94E5320C944431C4
:100260000C94F12D0C940C200C94DC340C94733110
:100270000C94953A0C94223C0C94623E0C940C39EC
:100280000C94CE3F0C9419160C9427290C94233A05
:100290000C9476400C9457200C942B200C94D9315C
:1002A0000C94043A0C94C61A0C9400250C940E3449
:1002B0000C945F160C9481290C9460200C941C1AE9
:1002C0000C9496340C94452C04000004040404049B
:1002D0000000040404040400000000040400000002
:1002E0000004000000000000000400000000000402
:1002F00000020000040004000004070404000004DD
:1003000004040000020200000002040700040004CC
:1003100004000004000202040404040400000400B9
:10032000040404040404040004000203040004049C
:1003300000040004000004000400000000000000AD
:10034000000001000201023703421B02000001000D
:100350000000331B030000010000003F1B040000ED
:1003600001000000811A05000001000000C61A0605
:10037000000100015112D91A0700000100000052CB
:100380001A08000100013603632B09000001000078
:10039000005F160A000201014C1285170B000301D1
:1003A00003330360160C0002010231039A170D009B
:1003B0000200023703D9310E000200023812C617BC
:1003C0000F000300033303A11810000200023103E1
:1003D000391811000500052C0357181200020002FD
:1003E00038124431130001000136039B311400021E
:1003F00000023103733115000200023812B83016C2
:10040000000400042803E53217000500052303DE7D
:100410003118000100013603963419000800081B4A
:100420000309351A00030003180360351B0002009E
:1004300002381200361C000200023103DC341D00B9
:10044000040004301299351E000100013603CA343D
:100450001F000800081003D03B20000200023103F7
:100460008A3B21000400033A120028220003000204
:100470003D12272923000300023D123729240004DE
:1004800000043412EC3A25000100013603E43A2658
:10049000000300030D03B43A27000400030A03D34A
:1004A0004228000300023D122441290004000434C4
:1004B00012AA272A000100013603A2272B000300FD
:1004C00003070357202C000300033F12A2192D003D
:1004D00006000601031C1A2E000200023812F12D3C
:1004E0002F00050005FC02CF1F3000040004461257
:1004F0002B20310002000238120C203200040003CD
:10050000F902892D3300050005F4022A2E3400017A
:10051000000136030C3935000400032112B73936C7
:1005200000050005EF02C22C37000400043412BCA1
:100530003838000300030D03EE3839000300023D94
:1005400012043A3A000300023D12953A3B000600BD
:1005500006E902233A3C000300023D122A3E3D0018
:100560000300023D12463E3E00080008E102623EE2
:100570003F00060006E902D03E4000050005DC020F
:10058000EC294100060006D602812942000300033F
:100590001803C32943000100013603063744000253
:1005A00000023103393845000200023812AF3746E5
:1005B000000100013603583647000200023103ED06
:1005C000374800040004D2026737490001000136B1
:1005D000032E244A000200023103CF244B00020004
:1005E00002381291224C00010001360335224D00E1
:1005F0000200023103AC234E00040004CE02FB23B0
:100600004F000100013603F82150000200023103BF
:10061000ED2251000300032D12842352000100013A
:100620003603212153000200023103B0225400019D
:100630000001360328235500060006C802A62156ED
:100640000003000318035F235700020002381272F0
:100650002258000300023D12CE3F5900040004302E
:100660001276405A000300031803343D5B0000017A
:1006700000000026435C0000000500000078DA9DC1
:10068000597B6FDB4612FF2A7B028ABB1E6C9F4898
:100690004A94EC43FF706C377513A76E945C0A1C88
:1006A0000E044DAE24227C954BFA7145BEFBCD6302
:1006B0005FA49414B80081B9BBB3B3B3B333BF79AB
:1006C000E88F59DAB6B38BD99BB2685BD9CD4E6649
:1006D0000F4351E6C9A3EC54D1D40A96765976213A
:1006E000FEF6FAEAEA7BB13C5B9CCDC543510F7D37
:1006F000512A9C7DF751BCD2C3EF457816C667E1FD
:100700003C88E741B80456595355699D03933F66A9
:1007100069593659DACBA4297225B266A8FB1FBEE7
:10072000CB66176B3CB1EFE1A824CD3E0B58856931
:100730006F7D117B04796E08DA46D19FA2FEE1BB82
:1007400041B443592643CB1B3C8EBF0FB27BB13C17
:100750004180CF48DD49D5277D917D563CEABBB429
:100760005655D127E65451D4707F7DFE0AEE51CA0A
:10077000B44BD47EE8F3E6A99E5D8478B57A5BEC51
:1007800040221584E1DC1CA1DA22D19F79DAA74945
:1007900027D3FC256121E1AA81B7EFB98C16CBC321
:1007A0007DB38BF8DC51D569D9EC92A2B6B7D69C53
:1007B000222781BEAAA1E061E2E9CFB1A349D98D88
:1007C000998D74B78C2D715EEC8A3E2D9366E82767
:1007D0001B1ED372907445B94D87B24FEC44953EC1
:1007E00027F9D0A53D580EC919AC2C3F0976D03752
:1007F000ED8857363A3C7487EFF3C562B5B66AEDBB
:1008000094D6A190E6235FD8AFA5FD8AEDD7CA7E26
:10081000C9327DB18F0DDA759ADB3FAF826773C441
:100820002E2D406BFBB4AE654977837B1B1E2A2BB4
:100830003FDB475CAD2D8322CC8479B585E35BE655
:10084000591007A1E10C54F66DD7AB2955F254F4B9
:100850007B78E1FEE1905EE0341F8C7B9D7ACA429A
:1008600085F9937B72958C3F93FEA5A5070142B84D
:1008700054D19A0910DFC959B5C379B89C1F937335
:10088000B5B454B56CDAE25996132320F356C57FFC
:1008900081EB7E0044E8137C7CCFA9948429D0A905
:1008A00053FD726199B64FD511C3CA5EC0D11C0FFA
:1008B0006D56FB616A68307360690B273138D394D9
:1008C00031624B5F3CCA645FECF674C368EDD3835E
:1008D000A7ED4A79C48BED9AD3E0F97CB4D3A0C2DA
:1008E000B1CD7A29A9D4EE87EFFE0E301845A3BD0D
:1008F000F8F6686799B27614390B51FDEADC414B82
:10090000A68E98A350F0D8E6F3A5CE92B1B98BACE1
:10091000CA93A9072CCFBD132482BE151D86DADC2D
:10092000445E74E693C190881DD5502AE9310DDDEF
:10093000C5FABDECAA06B0A63DAA517FD9293576E5
:10094000C6DD57D99076D636BAE7E400A8446F27BB
:10095000D1F2FAA2927C3507B07D87FA706A85479A
:10096000CBE5C300F6DC40B83B3723E0B2235BE6BF
:10097000F7092C1922B768BA5C76781E049E8E019E
:100980002D34044F5DD1CB030A345A26045164251B
:10099000BB9DACB39704910F84802946C164DF549A
:1009A000F2202EA9B46A7D07D0631B95C6710B4453
:1009B00077C8CBD7B53AEE8ADD4E767809D5307A4E
:1009C000844B773845459029EDA5555008CEB92D73
:1009D00020DE804B27AC4391751963E6C96C07DEB6
:1009E0004C728292F58868002A7838B4F80AE08759
:1009F00027330DDE8982F312B0401B9BF09BF51C60
:100A00000713327C02E1454E4D06CF81B0C48FA161
:100A1000ED41922F099C4B4AA9E3E1391322E800EA
:100A200006FA9006430224B82CFEC577928A8D768A
:100A300011B85DAAD9F64F6927FDEDE068D6B9F285
:100A4000D47C1EE3142F9893368AE93D16788F5C88
:100A5000D67DB1856C64BB8503C93B6D9006414C66
:100A60003C80B5E12BF6D1EFE1C07D53E634F8F6DA
:100A70008B0BD975CDC802D6F07006CC49E9F6EDDE
:100A800097A1B732B4B9B30B4EB3F6837797255815
:100A9000311BD024F71959271C379FD091C10D0E57
:100AA000E956E78E60940C4D18C5EB09DD9451BCF6
:100AB000B204D37CE9FF74ADCAB9968E356E04B921
:100AC000E20E36EE65F6D9CBB2A2C0C83049B2AC60
:100AD000046D03E8353DDF43E5A561304A4B26BA96
:100AE00058AD4654072A8DCDF2240799BE4D34A146
:100AF000237B9B20C27A618946E9C654A4604C7668
:100B00002093B58349BE31E5B398D01D30B2421F62
:100B100004ECAF64F68848109F8BADAE34ACC131A5
:100B2000E7899280203404C762D8570EF16C65645F
:100B30002A3C80D809909A7B9612F3430FF258868C
:100B40006DCF68FCC429B05B26799325B7E60958B8
:100B5000B330C418A885CB2465C7B1C9C0CE9E20C8
:100B60000CFE1680FE70734AD9203406FA93F633D1
:100B7000E84FCF830DF0AA48E3DF61521E80DCD13D
:100B80000111DD80F23CCB7394F4C1A69837D5F205
:100B9000598B00A98885D4A2E368153091D1C79FED
:100BA0002490A01514C5E57258F06D9D933A745BBE
:100BB000AF99CEC3476F355A98D55198C1291D6654
:100BC000AA26975E90802DB1DB722CC654856A4CA4
:100BD00064A91A551C4BF20E98C6FA365FBF47043B
:100BE00026C3F9E3B7C2F0723DA63A1E85972BA43F
:100BF000A24C31C1500F31A1C0BCDBFA4D70EE08E0
:100C000028C140EBE580246C7CF2A215EC80837552
:100C10009E375235C54F1BDE393881A5E9DDA84323
:100C2000F4E9231E0026B17674BD9F3FCAB6E9746D
:100C3000F2C2DE4B636B24F2B92DE049FC54E9DCCF
:100C4000729ADCC22702A570A83CE6C79E0F2CBE94
:100C5000989C14BB2097D757C9DDE56F986962CA85
:100C6000FCEAE326B9BF7DB741489B5DCCEE5F450A
:100C700027F7AF42F81FCCBCC5FE8916AFE727F7B0
:100C8000D7B870F5F697AB37C98FEF6F7E45779978
:100C9000D3BF93D9DDD547A04AFB4AEED27019CF16
:100CA00081F0FED31D9F166278797F737573FBAF59
:100CB0009BE4D3EDBBEB5F3EE1B38538B9B9790F67
:100CC000932C85EC8AB4C4B36EE0AC1B3C0B566F1E
:100CD0002FDF26AF2E3F5E231B3E6AF3E1F2C326D1
:100CE000D97CBCDBFC0A2B9B1B5C89BF6082394032
:100CF000CA4B4519F57CFC7214C7902251AE43B71C
:100D00009D7FE19C0988708D2E8973A39A1557DE0B
:100D1000DE6EC26B90170E86CFE8FA27E00174E012
:100D20001CB87A7F399F5DFC7B7EB2FE0FDCF71525
:100D30007EAFF9FB0ABF014D68708D03C871697001
:100D4000838328E4C18F3858E8FDAF69A019FC847B
:100D500083A566F0330E567ACF1B3A46EF794B03E4
:100D6000DCF36584315AFA3488A288844FD572BE88
:100D700058E5A481AA8FD7414C25017E86B1A2D423
:100D8000B92FE5721E840FA050CD4C6BC76A0C437F
:100D9000578126DE41E59214B9362A41C6B7E5EC03
:100DA000845B299725759F84C9EA7306E4ABB41662
:100DB00075D30B70268180240043193805F9847897
:100DC000DA17F0CDB6AD440BDE092731E29BBD83C7
:100DD00092145CBB406C9B4E8099FDD38C0B85AB11
:100DE00039CDD3948619D8FAD71E030E94AC3B1094
:100DF0000892D9B447EA548BC9053A172A9A582160
:100E000029BA1497533C4BB1895883A4B216A686CD
:100E1000B5FBC1A8AFB8EF28DAB40393E654982A1B
:100E200015B3D0490891AAA7EEE38F29DC37177DC7
:100E3000230889B0A94300C20D8B9F7EC36C0CBBF5
:100E400043FFD0DDA191AA4570BAE01EE56D78257B
:100E5000DE5D5EBDE15C1047E025EF3F98B9B93F2C
:100E6000F7FEE6F25A2F20D8E0C207C635C6B15BBE
:100E7000CE1A84E9EDB91625076F8E44864A775954
:100E8000A93273734086F74F2B09919F0B74B358A7
:100E9000358FD2A840600F0761CA2DDB8E8FEDF130
:100EA000708175B0AE4B057B7EE4890EAF26D80508
:100EB000B06436B3D89A31608808EACDEB8C0E3D29
:100EC0005F6F5CACC7045419B93BE95AC4508C52EB
:100ED000369F0BBCC65DFA8C2FB6360AE5B07C0790
:100EE000D55B0A4F08153A04586325B85028346179
:100EF00005497E3E94D82180CD988F080DF5640277
:100F0000F251E24B602AF2F50DFBB4CBC9C3343584
:100F10003680EE50FD94A209F8EAB665F3C439DED6
:100F20003B70AD54F075D0A709E1B038F317C0D9C4
:100F3000F4C2F978A1A85BCE843866D2528D92BAF9
:100F4000E980428275B9B66B76A0CC0A444FF16E47
:100F50005B4825404A50B644B4C0B8FF5EEA4BA196
:100F600087A03BC331A86A7806741F6C2E6F2CC112
:100F70008176C4535196106133E0376AD971CEE05F
:100F8000765A0D7D6307F6BC37E0FAFC86240052E2
:100F900014D5509939E31CA0CB8D69CB51EF1E9825
:100FA000115810F0F96DFC8D468FBE69C436A5DB73
:100FB000F1CDB01FF2C137295419105223922BFAE8
:100FC0000FA40FDC09C9859204E61F6B35B4986045
:100FD000484612826FECAA7F4AFB6C9F373BD6E2F1
:100FE0005FB8B741BF8940B01BEACFC01861885BCA
:100FF000E6DEBC720BC0857D04704A01BCA20743CB
:10100000EAA244A6F87DF1A70A0CB968F874FAE0E0
:10101000A4E1C2C0ADB2D770626C67D13DC77B5C42
:10102000579571B7A94B80EA4710297D280D025BBF
:1010300085721746F406CB30EBC0E4B514934341F8
:10104000F3F43390057FFDE350CE2D3885AD128447
:101050005A36B90C96491A9B34123491EACBB4C370
:1010600080171D4FC7F0BDD93BB0D5AA6304FB1E46
:1010700026A1104F0FDA91185021678A82F5724924
:10108000615B0F628ADB3C8897643C3088E3157CA7
:10109000475F286FC9E05D60FF0C7F147B7DFFF622
:1010A000319A5129D502E248FE0DCCF42746A536E7
:1010B000214572AC963B0D17EEB7ACD196D4EB3E02
:1010C000085AE15CFD14E1886B36971A9F46B62FEB
:1010D0002A30B9A22FCA9EA9C18773E60DA924019F
:1010E000544A6C9188DBA9E34D6D8D6F09AEB7E86A
:1010F0008FC43B1FD37DD35655E03FB64B7A8AD180
:10110000CEB42547ACF70D14D6BBC343FCAE27EED7
:101110008F5D873031BAF63A0C3436AA095D17CEA6
:10112000A3B5ED38AE78CE9016FB754E29629A7451
:10113000B15ECE23D7B53BE89F781730BD395F212C
:10114000B1D771D33A31C5E49065D456C4EB214A86
:1011500082987E8BFA1433064600480EA148F48B21
:10116000368541BDCEE4A46777CA95B8DB336AAD56
:10117000B836826E7E98D2884B709FE5C34031228C
:10118000E78616E46700028909624A9B0BE612CAE9
:10119000C1AFE9C01DD7E1E2585D7EF0927EEFC598
:1011A0007F528C9A7E21FCA726105106DDF594D241
:1011B00062FD83622967BA6AA8F41FF53B3DD5F941
:1011C000D2D5B693C2979BA305B25D4D8064FCA4B3
:1011D00047FD7BE050A2DF79E5EAE1C32B6025CC37
:1011E000E2CFFD1AD7D95A96DA82FB7833D8333D4D
:1011F000CCAFB9592FF8C7B06184145877E8DFFE37
:1012000001C91EE7674178363F5D04F3D35DB68DB3
:101210001EA08059E6B32FFF0340A2C07EA00B00A2
:101220000004020704000002000204000704040096
:10123000040000040400000004040404070407047C
:101240000002040404000404000404010704000470
:1012500002000000000000000600020273004003CC
:10126000211272001D062412710040032A12700020
:101270000F032D126F00140430126E001704341285
:101280006D000A0238126C0040023D126B004003F0
:101290003A126A0040023D12690040023D126800A5
:1012A00010033F1267001104421266001104461237
:1012B00065000D024A1264000B01511263004001E7
:1012C0004C12620012044D1261000B0151126000B9
:1012D000100252125F001503541200004002571210
:1012E0005E000E0259125D0009015B125C000600EF
:1012F000000020002300260029002C002F003200CF
:10130000000100000301060109010F4700440045E8
:101310000080013548004400450020010D88008010
:1013200000810080000E8A008000810020000F8C68
:10133000008000810008000CB300B000B100800301
:101340003EB400B000B1002003239800900091004B
:101350008000249A00900091002000259C009000BD
:10136000910008003BA800A000A10080003CAA005A
:10137000A000A10020003DAC00A000A10008005B7F
:1013800028012001210180005C2A01200121012087
:10139000005D2C0120012101080028292A2B2C2D79
:1013A0002E2F505152535455565711241FBECFEF74
:1013B000D1E2DEBFCDBF00E00CBF14BE0FB6F89483
:1013C000A895809160008861809360001092600011
:1013D0000FBE12E0A0E0B2E0E8ECF8E800E00BBFDE
:1013E00002C007900D92A033B107D9F723E0A0E324
:1013F000B2E001C01D92A13AB207E1F70E94922625
:101400000C9462440C940000CF93DF93CDB7DEB709
:10141000A1970FB6F894DEBF0FBECDBF0E947F2606
:101420006B017C0180912602882311F40C94FA113F
:101430000E947F26C61AD70AE80AF90AF894809112
:101440002602882361F08FEF809327028093260283
:1014500078940000F894809126028111F9CF789455
:101460000E947F2697018601060F171F281F391F2C
:101470000A8F1B8F2C8F3D8F81E0809326028091F5
:101480007702882309F443C0109277028FEF898393
:101490008E010F5F1F4FF4EAEF2EF2E1FF2E6AEC90
:1014A00074E3C8010E947F2B6C01892B81F1D60166
:1014B00056968C9182FFF3CF0E947F26F894F60116
:1014C00037892689422F4B7F468B78949F938F9341
:1014D0007F936F931F923F9321701F922F93898167
:1014E0001F928F93FF92EF920E94921B2DB73EB7EF
:1014F000245F3F4F0FB6F8943EBF0FBE2DBF6AEC7E
:1015000074E3C8010E947F2B6C01892B81F68091C6
:101510007802882339F1109278028FEF89838E0147
:101520000F5F1F4FEEE9EE2EE2E1FE2E6AE87BE34D
:10153000C8010E947F2BFC01892BA1F0958D868D1F
:101540009813F4CFF894858D968D891711F40C9427
:10155000241378946AE87BE3C8010E947F2BFC0186
:10156000892B61F780916B02882321F110926B0225
:101570008FEF89838E010F5F1F4F7CE8E72E72E1AA
:10158000F72E6CE070E2C8010E947F2B009791F06B
:10159000DC0158962C912F3FA1F7F894FC01268589
:1015A0002111F2C678946CE070E2C8010E947F2B92
:1015B000009771F780917602882309F440C0109259
:1015C00076028FEF89838E010F5F1F4F66E8E62E4C
:1015D00062E1F62E6AE27EE2C8010E947F2B00974C
:1015E00071F1DC011E962C911E9723FFF3CFF89426
:1015F000FC012685277F268778949C01265E3F4F35
:101600003F932F9350968C918695869586951F9241
:101610008F9389811F928F93FF92EF920E94921B6A
:10162000EDB7FEB738960FB6F894FEBF0FBEEDBF0C
:101630006AE27EE2C8010E947F2B009791F68091BA
:101640007B02882309F44BC010927B028FEF8983C1
:101650008E010F5F1F4F5AE7E52E52E1F52E6EEE19
:1016600078E3C8010E947F2BFC01892BC1F1848D96
:1016700080FFF5CFF8949481258136814781548984
:1016800065897689A789B08DD18CC28CB38C848D05
:101690008E7F848F7894BF92CF92DF92BF93AF9367
:1016A0007F936F935F934F933F932F939F93898182
:1016B0001F928F93FF92EF920E94921B2DB73EB71D
:1016C000205F3F4F0FB6F8943EBF0FBE2DBF6EEEAA
:1016D00078E3C8010E947F2BFC01892B41F68091A1
:1016E0007202882309F456C0109272028FEF8B8722
:1016F000AE01455F5F4F1A013CE0932E47E0842E18
:1017000063EC79E2C1010E947F2B5C01892B09F413
:1017100041C0D50159968C91599780FFF1CFF8942B
:10172000F5014480558066807780818D8E7F818F22
:10173000789458968C91813009F4C4C308F4A2C3FC
:10174000823009F4EEC38330D9F6CB8419821A8231
:101750009E012F5F3F4F42E061E0F501848995894A
:101760000E942D2809811A81102701271027F02FA8
:10177000F670EF2E20E030E0B301A201C5010E9417
:10178000332A63EC79E2C1010E947F2B5C01892B33
:1017900009F0BFCF809179028823F9F01092790285
:1017A0008FEF8B878E01055F1F4F180189E0B82EE0
:1017B0000A50110992EFC92EDD24DA9406C0D70130
:1017C0001E968C911E9780FDECC36FEA77E3C101F2
:1017D0000E947F2B7C01892B91F780917A028823CC
:1017E00029F110927A028FEF8F87FE0131964F0117
:1017F0002E01F7E04F0E511C58EA652E67E0362E99
:101800007FEA272E5E0108E0A00EB11C06C0D701BA
:101810001F968C911F9780FD3BC467E677E3CE014E
:101820000F960E947F2B7C01892B89F780916C0297
:101830008823B1F010926C028FEF8D8732E7B32EC0
:1018400044E7D42E04C0F701828980FD82C461E997
:1018500072E2CE010D960E947F2B7C01892B99F7B5
:1018600080916D028823B9F010926D028FEF898309
:101870008E010F5F1F4FEE24E394F12C170104C07B
:10188000FC0121852111CAC46BEF73E2C8010E94DB
:101890007F2B0097A9F780916E028823B9F01092F0
:1018A0006E028FEF8B878E01055F1F4F180106C0F8
:1018B000D80151968C915197811131C564E873E23A
:1018C000C1010E947F2B8C01892B91F780916F02BF
:1018D000882309F48FC010926F028FEF8B87FE016F
:1018E0003B961F0162E772E2C1010E947F2B8C01CF
:1018F000892B09F47FC0D8011E968C911E9780FF1A
:10190000F1CFBB84AE014F5F5F4F68E11C968D91B4
:101910009C911D970E94653D89819A81982789270E
:10192000F894F80196859E7F9687789483FFDACFA6
:10193000C388D12C7601B4E1EB0EF11CE00EF11E50
:10194000A70160E0848595850E94653DA7014E5FF3
:101950005F4F61E0D8011C968D919C911D970E946C
:10196000653DF80183898C5F838B4801FCE48F0E11
:10197000911CD401AC90A2FE33C0F7012181828179
:1019800090E0A0E0B0E0BA2FA92F982F8827A22BD3
:101990002381822BF801EC0DFD1D24896C017D0152
:1019A000F22AC114D104E104F0E1FF0608F089C570
:1019B0000E947F26A1FC7BC7F801E15BFF4F4080BE
:1019C0005180628073804C145D046E047F0408F4BF
:1019D0007DC78A2D8D7FF4018083D80153968C9129
:1019E00090E0C0970CF47ECF6B2DC8010F960E943B
:1019F000B14078CF80917C02882309F47FC0109297
:101A00007C028FEF8B87FE013B961F0177247A942F
:101A10008E010F5F1F4F198B088B9E012A5F3F4F6E
:101A20003B8B2A8BAE01475F5F4F5D8B4C8B8DE10B
:101A3000482E25E0622E33E0532E64E37DE3C1019E
:101A40000E947F2B6C01892B09F458C0D6011E9689
:101A50008C9182FFF2CFF894F60144815581668122
:101A60007781F1881686118A789480859185A28580
:101A7000B3858A019B01081B190B2A0B3B0B0E8BAC
:101A80001F8B288F398F86010E5E1F4FD601FF20D6
:101A900089F056968C91F601E80FF11D778A108E29
:101AA000118E8D5FF601868B813310F5FA94D60185
:101AB000F110EFCF1F961C91112309F470C1113062
:101AC00009F4A8C1123009F44EC5133009F4DDC57C
:101AD000143009F420C6D60156968C9190E0C19737
:101AE0000CF4ABCF6B85C60142960E94B140A1CFEA
:101AF0006B85C8010E94B140FA94D9CFA895809116
:101B00007D02882329F080E48093600010927D029A
:101B100010913E03112309F46EC00091300200FDC4
:101B200012C0153008F467C0D0907E02BD2C8BEF38
:101B30008D0D8C3308F493C4EEE7BE1609F420C76C
:101B4000016000933002412F50E06EE770E08EE7B5
:101B500092E00E943344009739F00E7F00933002E8
:101B60008E57924011E0180F01FD0CC0902F92602B
:101B70009093300287E796E09F938F930E94921B89
:101B80000F900F90D12ECC24CA9420E0ED2CF12C94
:101B900019C0822F90E0402F50E0481B590BB7012D
:101BA000680F791F62587D4F82589D4F0E944944AB
:101BB00010922602202F8FB7F89490913E031917A8
:101BC00061F08FBF10913E03012F0D1911F78FB7F0
:101BD000F89490913E031913F4CF00933E038FBF06
:101BE000F1E0CF1208C087E796E09F938F930E94A1
:101BF000921B0F900F900E947F266B017C010A8D33
:101C00001B8D2C8D3D8D601B710B820B930B809077
:101C1000390290903A02A0903B02B0903C021FEF34
:101C2000811A910AA10AB10A8092390290923A026D
:101C3000A0923B02B0923C02409035025090360296
:101C40006090370270903802460E571E681E791E4B
:101C500040923502509236026092370270923802FA
:101C60006115710521E08207910508F0C8C39B0149
:101C7000AC010E949043DC01CB0181509F4FAF4FDC
:101C8000BF4F892F9A2FAB2FBB2740913102509124
:101C900032026091330270913402840F951FA61FA7
:101CA000B71F84179507A607B70718F48FEF9FEFA4
:101CB000DC018093310290933202A0933302B093FF
:101CC000340240914E0250914F0260915002709147
:101CD00051025C546B437B4F2F2DC416D506E6068C
:101CE000270B27FD9FCBBF93AF939F938F937F923B
:101CF0006F925F924F92BF92AF929F928F9284EDBC
:101D000092E19F938F930E94921B4DB75EB7425F03
:101D10005F4F0FB6F8945EBF0FBE4DBF80914E026D
:101D200090914F02A0915002B0915102C816D9066D
:101D3000EA06FB0698F480914A0290914B02A0912A
:101D40004C02B0914D020196A11DB11D80934A0233
:101D500090934B02A0934C02B0934D02C0924E025E
:101D6000D0924F02E0925002F09251021092310252
:101D70001092320210923302109234021092350205
:101D800010923602109237021092380210923902E5
:101D900010923A0210923B0210923C0243CB82E333
:101DA00089831A820E947F264B015C019E012F5F6E
:101DB0003F4F42E061E0F601848595850E942D2821
:101DC0000E947F26DC01CB0188199909AA09BB0969
:101DD00081329340A105B10508F046C0898187FD95
:101DE000FCC22A81E22EF12C9701220F331FE82E2C
:101DF000F12CC701982F8827990F7901E82AF92A31
:101E0000950184014E895F89688D798DC6010E9494
:101E1000D74061CE8FE789838EEF8A830E947F2629
:101E20006E8F7F8F88A399A39E012F5F3F4F42E063
:101E300060E0D6011C968D919C911D970E942D28E3
:101E40000E947F264B015C01DC01CB010E8D1F8DB2
:101E500028A139A1801B910BA20BB30B81329340B7
:101E6000A105B10508F43BC3D60156968C91F60145
:101E7000E80FF11D778A92E0908F118E8D5FF60149
:101E8000868B29CECB8419821A821B821C829E01EA
:101E90002F5F3F4F44E061E0F501848995890E94FE
:101EA0002D2869817A818B819C810E94C243F62F03
:101EB000F770EF2E8B019C01B301A201C5010E94B6
:101EC000332A1ECC0B850E8B99821A821B821C82B0
:101ED0009E012F5F3F4F44E061E0848995890E9415
:101EE0002D2869817A818B819C810E94C2436B017C
:101EF0007C01BFE0B9831A829E012F5F3F4F42E011
:101F000061E0F501848995890E942D289701860159
:101F10003327CE88EA80B301A201C5010E94332A8B
:101F2000EFCBCB8481E089831A821B821C829E01C5
:101F30002F5F3F4F43E061E0848995890E942D28FF
:101F400069817A818B819C810E94C243BB27A92F22
:101F5000982F872F8C019D01222733270E8B1F8BF3
:101F6000288F398F89821A829E012F5F3F4F42E06E
:101F700061E0D50154968D919C9155970E942D2832
:101F80008A81982F9C7F8E898170E92EE82A0E899C
:101F90001F89288D398DB301A201C5010E94332A02
:101FA000AFCBAB84F8012B2D11922A95E9F7C982AA
:101FB000980149E061E01C968D919C911D970E94CB
:101FC0002D28D70153968C9190E0FC017496EE0D6C
:101FD000FF1D3B81232F207FE1F0203FD1F0D482F1
:101FE000D382D282D182F701E80FF91FD48AF70198
:101FF00083898B5F838B8F3208F09FC2D7011E9637
:102000008C911E978E7F1E968C93C7010E941A3862
:10201000DCCB2D81422F407F09F04FC25F81452FDD
:10202000407F11F0403FD9F648854039C1F64985D7
:102030004F77942EB0E2B41790F2D701A80FB91FD2
:102040004A8154964C938C8181838E818283852F23
:1020500090E03F71AC01440F551F42955295507F5F
:102060005427407F5427342B3383880F991F880FC0
:10207000991F80762F71822B8483D70153968C9180
:1020800053978B5F53968C938F3208F45CC256C281
:102090007F8455968C91C82ED12CB6E1CB0ED11CE5
:1020A000CE0CDF1CF70196859111CBC1D401E32D35
:1020B0001D92EA95E9F72B861C866982D701509616
:1020C0008C91813009F47DC3940147E061E0F70110
:1020D000848595850E942D289E01255F3F4F42E013
:1020E00061E0D7011C968D919C911D970E942D282F
:1020F000F70180891C85012F813009F472C30F73A9
:102100001074FE013296D60181918D93AE16BF06F2
:10211000D9F7D70155968C9155978A5F55968C9330
:102120008E3208F036C3112331F0F7018389948988
:102130000196948B838B002309F48BC1D7011F96E2
:102140008C911F978E7F1F968C93C7010E94CE376C
:1021500064CBCD8480899189C09760F1D982870151
:10216000085E1F4F20E3AE014F5F5F4F61E0D70174
:102170001C968D919C911D970E9499410E9400167A
:1021800080E3F701878B80899189C097918B808B41
:102190006C2DC70143960E94B140D70150968D9196
:1021A0009C915197C09778F11092260281E080931C
:1021B0006C024DCBF70184859585BB868E010F5F40
:1021C0001F4F22E0AE01455F5F4F61E00E949941E1
:1021D0000E94001689818F7190E0982F88272A81AC
:1021E000822BD7011E962D913C911F9728173907F6
:1021F00020F41F969C938E931E97F701918B808BF2
:10220000C0970CF0ABCFD70152968C9152978E7F2E
:1022100052968C93C7010E94B02419CBB980908448
:10222000E92DF0E0DC015296CD90DC905397549666
:10223000AC90549755964D905C90569757963C911C
:10224000779640E050E0BA01EB2CFA2C792CF89408
:10225000D2013C93000000003C93D6012C9178946D
:10226000440F551F661F771F2F21812C912C54017D
:102270008394211103C0812C912C540148295929A0
:102280006A297B29319718F7BE2C972CF894FC010A
:102290002185118678946A017B0104C0F694E79445
:1022A000D794C7947A94D2F7E7FE02C0FF24FA9439
:1022B000210101C0440C9A94EAF74A94512C612CF4
:1022C000712C442155216621772144165506660656
:1022D000770609F464C220E030E040E050E8DC0119
:1022E0001E962D933D934D935C93519760E850E07B
:1022F00040E030E0DC015C962C91FC01E20FF11D26
:10230000358F468F578F60A32C5FFC01248F2033BD
:1023100008F4BACA6B2D48960E94B140B5CAFB8436
:1023200019821A821B829E012F5F3F4F43E061E0BA
:102330001F968D919C9150970E942D28F801118A2B
:1023400029818A8190E0A0E0B0E0BA2FA92F982FD0
:102350008827A22B2B81822BA7FDBF6FF80127892D
:10236000E20FF11D808F918FA28FB38F84E0820FD7
:10237000D80157968C93803308F4A0CA6F2DC801FA
:1023800043960E94B1409ACA318D308F7894AC0147
:10239000415F5F4F5F934F931F922F93FC0187899B
:1023A0001F928F9389811F928F93FF92EF920E94C9
:1023B000921B2DB73EB7265F3F4F0FB6F8943EBF36
:1023C0000FBE2DBFDEC82A893B89E217F30709F04B
:1023D000CEC19E81981709F458C2D60156968C91A9
:1023E000F601E80FF11D778A508E118E8D5FF60190
:1023F000868B71CBCA8EDB8EEC8EFD8E3DC861154F
:10240000710530E18307910508F050CC8B019C01E8
:1024100001501F4F2F4F3F4F5527432F322F212F52
:102420000E949043DC01CB01409131025091320275
:102430006091330270913402840F951FA61FB71F5D
:1024400030CC913009F4CFC18A5F858B8E3208F091
:102450009EC110922602F1E0F0937A02DEC9C0908C
:102460007F028C2D807F803109F066CB1D1508F42A
:10247000C2CB8D2D90E0FC01E358FD4F20812E371B
:1024800009F05ACBFC01E558FD4F1F01FC01E4584F
:10249000FD4F9081D1018C91292F30E07901F82AEC
:1024A0006DEF6D0D8EE792E00E949526E816F90615
:1024B00009F468C2B0907E023FCB403F09F08FCD57
:1024C000ADCDD4011C92F801E25BFF4F60813497DF
:1024D000808191810E94CB35F801838981CA80EC8B
:1024E00089831A829E012F5F3F4F42E061E0D6014F
:1024F0001C968D919C911D970E942D282981EA8020
:10250000922F9E25892F82958F709827892F8695E7
:1025100086958927982F9695892780FDAAC126FF41
:10252000FAC1F6018689E80FF11D778A608E118E57
:102530008D5FD60156968C93CECA912C6A2DC70119
:102540000F960E94B140BEE1B91508F054C3F701DF
:10255000818992890196928B818B1092260281E06B
:102560008093790232C9D6011C96ED91FC911D979A
:102570001481F280038140E06F2D702F812F0E9423
:102580007D270E947F264B015C01B0E18B0E911CE0
:10259000A11CB11C0E947F262B2D86169706A8062B
:1025A000290B27FFF7CFF89441E06F2D702F812F73
:1025B0000E947D270E947F264B015C0178948AE06F
:1025C000E889F98911928A95E9F784E8898383E299
:1025D0008A839E012F5F3F4F4AE061E0D6011C963F
:1025E0008D919C911D970E942D28FE01339685E0C8
:1025F0009191892728E030E004C0880F21503109EB
:1026000039F087FFFACF880F842521503109C9F7A7
:102610000C891D89E017F10759F7809590E02A850C
:1026200030E08217930709F0D8CE898584FF66C011
:102630008B8187FD7BC1D60156968C91F601E80F00
:10264000F11D778A94E018CC548965899089218995
:10265000328943898F5F858F78946F935F934F930F
:102660003F932F939F9389811F928F93FF92EF92B5
:102670000E94921B4DB75EB7465F5F4F0FB6F8944E
:102680005EBF0FBE4DBF0C94960A83E889831A8201
:102690001B820E947F264B015C019E012F5F3F4FF2
:1026A00043E061E0D6011C968D919C911D970E949C
:1026B0002D280E947F269B01AC01281939094A095F
:1026C0005B0949015A0131E2831633E09306A10404
:1026D000B10408F0C9CB3A812B81532F5227452FE3
:1026E00042954F705427452F469546955427452FC0
:1026F0004695452740FDB0C021FFFCC0D601569647
:102700008C91F601E80FF11D778A608E118E8D5F36
:10271000F601868BE0C986E0EAE2F2E0DE0111967E
:1027200001900D928A95E1F70E947F264B015C0192
:102730009E012F5F3F4F46E061E0D6011C968D91D0
:102740009C911D970E942D280E947F26AB01BC0101
:10275000DB01CA0188199909AA09BB098132934092
:10276000A105B10508F080CBFE01339680E0919180
:10277000892728E030E005C0880F2150310909F48D
:1027800022CE87FFF9CF880F07E08027F6CF00E041
:1027900010E0672DC70141960E94B140C4CC21FDD5
:1027A00013C0FC0146845784608871884114510429
:1027B0006104710409F01AC23C2D4D2D5E2D6F2D60
:1027C00099CDB8EEB98380CC20E030E040E050E411
:1027D000DC011E962D933D934D935C93519760E4DD
:1027E00086CD00728DCCF8E2FE87D70150968C9191
:1027F000813009F47DC0BFE2BD87840126E0AE01CF
:10280000425F5F4F61E0F701848595850E949941A1
:102810000E9400168E01055F1F4F21E0AE01435F4D
:102820005F4F61E0D7011C968D919C911D970E948E
:1028300099410E940016F70180891B85012F813084
:1028400009F454C00F731074D401F6018D91819373
:102850004A165B06D9F75DCCD60156968C91F601E7
:10286000E80FF11D778A108F118E8D5FF601868B30
:1028700032C9F6018689E80FF11D778A508E118ED4
:102880008D5FD60156968C9326C98D8181FD36CFFA
:10289000EB80FC80FE24EF24FE248A019B014E89FC
:1028A0005F89688D798DC6010E94D74014C9F801EF
:1028B000ED5AFF4F4080518062807380292F64154C
:1028C00075058605270927FF77C887C8F801ED5ADF
:1028D000FF4F608371838283938336976081339740
:1028E000808191810E94CB3580E075C80072ABCFAA
:1028F0006E8681CF432F50E0542F44272C7F7A01DE
:10290000E22A8B019C014E895F89688D798DC60111
:102910000E94D740E0C8822F90E0982F8827990F17
:10292000990FB4E0EB9E7001112468CA0E891F89CB
:10293000288D398D801A910AA20AB30A11E58116F1
:1029400015E59106A104B10408F041C12C8130E0E5
:10295000220F331F90E0982F8827990F822B932BFB
:10296000D60156963C91F601E30FF11D2F81269575
:102970002F73278B808F918F3D5FF601368BABC80D
:1029800011E000C9802F8D7F809330028091080272
:10299000C81229C181E08C0D8F708061809308027C
:1029A000B0E82B16B2E03B0609F008F4FAC000E8E4
:1029B00012E085E7E82E86E0F82E99E0C92E8DB664
:1029C0009EB6D8012C9127FDB4C00F5F1F4F30E099
:1029D0002115310509F404C1F70185919491281757
:1029E000390708F0FDC0A901440F551F440F551FBA
:1029F000440F551F420F531FFA01E55CFC4FE49151
:102A00008DB79EB7A4E0EA9F8019910911240FB6F3
:102A1000F8949EBF0FBE8DBF0196FA01E35CFC4F98
:102A20006491FA01E25CFC4F45915491FA01460F22
:102A3000511DBA01AC019F8A8E8A9F8F8E8F6E17AF
:102A40007F0709F488C02016310608F46FC0A491EE
:102A5000A53028F1A73009F069C02801BFEF4B1A53
:102A60005B0AD8016C908201060D111D20163106FB
:102A700008F45CC0712C812C912CDA016D927D924E
:102A80008D929C921397612C712C14964D925D92AD
:102A90006D927C921797485F5F4F3196D0CF5A0165
:102AA00084E0A80EB11C48019FEF891A990AD80149
:102AB0001C91912F9F77492E512C612C712C012F45
:102AC0000076003609F440C017FF6FC084010F5F25
:102AD0001F4FD80111978C91440C551C661C771C14
:102AE000440C551C661C771C440C551C661C771C3A
:102AF000440C551C661C771C440C551C661C771C2A
:102B0000440C551C661C771C440C551C661C771C19
:102B1000982F9F77492A87FDDACFDA014D925D928F
:102B20006D927C921397A501319689CF87E00E9420
:102B30008B1B2F77B0E82B9F90011124F801818126
:102B4000282B0E5F1F4F44CFB0EE4B2A55245A94CA
:102B5000652C762CB9CF8E889F888E8D9F8D409165
:102B60002802442351F0C29EF001C39EF00D1124AF
:102B7000E45CFC4FE491E0FF1AC0C29EF001C39EEA
:102B8000F00D1124E05CFC4F25913491F901199569
:102B90000FB6F8949EBE0FBE8DBE0215130508F445
:102BA0000ECFCC24C3940C94C50D8401B6CF809174
:102BB00029021F928F93E6EEF2E1FF93EF930E94BA
:102BC000921B0FB6F8949EBE0FBE8DBEE6CFD60107
:102BD00056968C91F601E80FF11D778A91E04CC969
:102BE00085E00E948B1B1D2D0C94BA0D342D452DB4
:102BF000562D672D7FCBF1E0F91508F4AECCFEC958
:102C00008230910589F05CF08330910529F00497BA
:102C100071F48DE10E948B1B8EE10E948B1B01974A
:102C200039F48FE10E948B1B8CE10E948B1B08956D
:102C300008950F931F93FC01A489B58986898C930D
:102C400093A181E0892783A344815581668177819F
:102C500080FF12C00085118522853385400F511FEA
:102C6000621F731F82FD12C044835583668377837E
:102C700081E01F910F91089504851585268537857C
:102C8000400F511F621F731F82FFEECF0089118911
:102C900022893389872F401751076207830B87FDED
:102CA000E3CF8DE796E193838283B901A801448342
:102CB00055836683778381E01F910F91089508956E
:102CC000FC018081A481B581408551856285738531
:102CD0009FB7F894813061F0823019F04C939FBF18
:102CE00008954D935D936D937C9313979FBF0895C3
:102CF00011965C934E939FBF08958F929F92AF92CF
:102D0000BF92CF92DF92EF92FF921F93CF93DF9308
:102D1000EC01EF8CF8A0E114F10409F4F0C0F70124
:102D20008081918198A38F8F86809780A084B184C1
:102D300011E081149104A104B10409F4A1C06C89CB
:102D40007D898E89412F0E947D2780913D0290913F
:102D50003E02F70191838083F0923E02E0923D02B1
:102D600081149104A104B104E9F08B8D9C8DAD8D8B
:102D7000BE8D88169906AA06BB06A0F44F89588D09
:102D8000698D7A8D411551056105710509F45BC0A6
:102D90008C819D81AE81BF81480F591F6A1F7B1FA7
:102DA000166022C08BA131E081149104A104B1040A
:102DB00009F068C084FB992790F921E09227391720
:102DC00009F443C04F89588D698D7A8D411551059D
:102DD00061057105D1F18C819D81AE81BF81480F64
:102DE000591F6A1F7B1F1460EF8DF8A1309709F0FF
:102DF00077C02BA1488B598B6A8B7B8B2071212B41
:102E00002BA311FF5FC0880D991DAA1DBB1D12FDCC
:102E100052C029E136E13B832A838C839D83AE83B4
:102E2000BF8388869986AA86BB868B8D9C8DAD8D47
:102E3000BE8D88199909AA09BB098C879D87AE8721
:102E4000BF8781E011C012608BA1EF8DF8A1309790
:102E5000D9F4188A198A1A8A1B8A8071812B8BA34C
:102E6000812F827011FD34C0DF91CF911F91FF90AF
:102E7000EF90DF90CF90BF90AF909F908F9008958C
:102E800010E05DCF30E096CF42815381648175813F
:102E9000488B598B6A8B7B8B8071912F9460892B27
:102EA0008BA311FF0FC08C819D81AE81BF81880DE6
:102EB000991DAA1DBB1D2B2F84179507A607270B4D
:102EC00027FDA7CF4C835D836E837F8381E0CCCFCA
:102ED00040E050E0BA018C819D81AE81BF8193CFEB
:102EE000C280D380E480F580872F4C155D056E0588
:102EF0008F0987FD07C08BA1B701A601C9CF85E166
:102F00000E948B1B83E10E948B1BFC0185818F93A8
:102F100084818F9380811F928F938CEB92E19F939A
:102F20008F930E94921B0F900F900F900F900F9015
:102F30000F900895DC012C911496ED91FC9115975A
:102F40003FB7F8942130E9F02230B1F0808190E071
:102F5000A0E0B0E03FBFBF93AF939F938F9386EB0A
:102F600092E19F938F930E94921B0F900F900F906E
:102F70000F900F900F90089580819181A281B3816D
:102F8000E9CF80819181A0E0B0E0E4CF8F929F9261
:102F9000AF92BF92FF920F931F93CF93DF938C0159
:102FA00067E578E1FC0180810E94C92BEC010E9459
:102FB000433C8F8D98A1892B09F058C0F8010481FA
:102FC0001BA1FF24F394002339F16C897D898E893C
:102FD0004F2D0E947D2721E001111CC014FB882782
:102FE00080F991E08927281741F08F89988DA98D64
:102FF000BA8D892B8A2B8B2B89F410711F291BA367
:10300000DF91CF911F910F91FF90BF90AF909F9054
:103010008F90089520E0E2CFF12CD7CF0E947F2639
:103020008F88988CA98CBA8CDC01CB01880D991DF6
:10303000AA1DBB1D888B998BAA8BBB8B8C839D8310
:10304000AE83BF838DE796E19B838A831071146002
:103050001F291BA3CE01DF91CF911F910F91FF90EC
:10306000BF90AF909F908F900C94953C82E10E940E
:103070008B1BCF93DF93EC0167E578E188810E9499
:10308000C92BF894FC01278D30A1232B69F44C81C6
:103090005D816E817F81FC01438F548F658F768FB8
:1030A0007894DF91CF91089584E10E948B1BCF9299
:1030B000DF92EF92CF93DF93EC0161E088859985F1
:1030C000AA85BB85892B8A2B8B2B09F460E08C8128
:1030D0000E9428256B01E82E44E250E067E578E184
:1030E00088810E94A32BFC01C48AD58AE68A21E04C
:1030F000488559856A857B85452B462B472B09F4E6
:1031000020E04C855D856E857F85452B462B472BC2
:10311000B1F430E0232BFC0123A3488959896A8943
:103120007B89478B508F618F728F6AE070E04F967A
:10313000DF91CF91EF90DF90CF900C942B2C30E16A
:10314000E9CFCF92DF92EF92FF920F931F93CF932D
:10315000DF938C0167E578E1DC018C910E94C92B3B
:10316000EC010E94973FFC01D8011496CD90DD90B0
:10317000ED90FC901797C282D382E482F582189674
:103180004D915D916D917C911B974683578360872C
:103190007187F894118210828F8D98A1892B81F00C
:1031A000A9A1BAA1ED93FC93FAA3E9A37894DF91C6
:1031B000CF911F910F91FF90EF90DF90CF900895E6
:1031C000FAA3E9A3F8A3EF8F8BA182FD25C0C88ADB
:1031D000D98AEA8AFB8A982F94609BA381FD10C04C
:1031E000CE010E94433CCC82DD82EE82FF828DE7DD
:1031F00096E19B838A83CE010E94953C7894D7CF39
:103200004C815D816E817F81872F4C155D056E0538
:103210008F0987FFE5CFF2CF488959896A897B8971
:10322000972F4C155D056E059F0997FFD0CF83E161
:103230000E948B1B81E20E948B1B0F931F93CF93E5
:10324000DF93FC01A189B2898D919C911197928B9A
:10325000818B16968D919C911797C085D18522857B
:1032600021113FC02FB7F894AC01552759834883EB
:103270002FBF20913D0230913E0211963C932E9338
:10328000B0933E02A0933D02A189B289109759F5EF
:10329000278530898217930741F083859485A5851A
:1032A000B6850097A105B10531F480E0DF91CF919B
:1032B0001F910F9108954481558166817781840F14
:1032C000951FA61FB71F84839583A683B7838AE1C2
:1032D00099E19383828381E0DF91CF911F910F91D8
:1032E00008958883C6CF12964D915D916D917C9122
:1032F0001597278530898217930741F08385948538
:10330000A585B6850097A105B10551F44483558381
:103310006683778381E0DF91CF911F910F910895AC
:103320000481158126813781800F911FA21FB31F51
:103330002B2F84179507A607270B27FFE7CF80E2DF
:103340000E948B1BEF92FF920F931F93CF93DF93FB
:103350007C016CE17AE1DC018C910E94C92B8C012B
:103360000E94973FEC01F70184819581A681B78186
:103370008A839B83AC83BD83808591859F838E8365
:10338000F89419821882D80151968D919C91529788
:10339000892BB9F15396ED91FC915497D183C08359
:1033A0005496DC93CE93539780E090E07894892BE9
:1033B00039F4DF91CF911F910F91FF90EF90089515
:1033C000C8010E94433CD80112968D919C9113979D
:1033D0008A519941F1F08A819B81AC81BD812DE1B7
:1033E00039E1F8013383228384839583A683B783ED
:1033F000C801DF91CF911F910F91FF90EF900C9436
:10340000953CF801D48BC38BD28BC18B81E090E0CB
:10341000CDCF8A819B81AC81BD81F80144815581EA
:1034200066817781272F481759076A072B0B27FFDB
:10343000D6CF80E20E948B1BCF92DF92EF92CF9388
:10344000DF93EC01488559856A857B852C858C81C5
:103450000E947D2F6B01E82E45E150E06CE17AE19E
:1034600088810E94A32BFC01C086D186E2868889D0
:103470009989908B87878C899D89AE89BF8983873D
:103480009487A587B6878DE199E19383828368E06D
:1034900070E0CF014196DF91CF91EF90DF90CF9018
:1034A0000C942B2C80914402909145029F938F9312
:1034B00021E030912802311101C020E01F922F93AA
:1034C000209149022F93209148022F932091470287
:1034D0002F93209146022F9321E0892B09F420E0BD
:1034E0001F922F9382EC92E19F938F930E94921BE5
:1034F0008DB79EB70C960FB6F8949EBF0FBE8DBFCA
:103500000895CF92DF92EF92FF920F931F930E9444
:103510007F269F938F937F936F9301E010E020E0CD
:1035200030E0C0904E02D0904F02E0905002F090F8
:1035300051026C157D058E059F0518F000E010E026
:10354000980180914A0290914B02A0914C02B09157
:103550004D02800F911FA21FB31FBF93AF939F9384
:103560008F938EEC92E19F938F930E94921B8DB765
:103570009EB70A960FB6F8949EBF0FBE8DBF1F91DF
:103580000F91FF90EF90DF90CF9008950E947F26DB
:103590009F938F937F936F9388EC92E19F938F9388
:1035A0000E94921B0F900F900F900F900F900F9012
:1035B00008950F931F93CF93DF938C018091440262
:1035C00090914502892B09F04BC06091430270E055
:1035D000623071052CF482E08093430262E070E077
:1035E000E0913F02F09140024DB75EB741505F4F0E
:1035F00044275A959F01C0E0D0E0C901860F971F6C
:103600004817590730F121969C01C115A4E0DA074B
:10361000A1F78E1B9F0B0E94AB3FD0934502C09336
:10362000440290934202809341020E94E12BF801F0
:1036300080819181A281B381809346029093470259
:10364000A0934802B0934902DF91CF911F910F914F
:103650000895209711F0C901DCCF80E10E948B1BF7
:103660008DE00E948B1B80912802882329F08230F4
:1036700011F010922802089582E00E948B1B88E0CE
:103680000E948B1BCF92DF92EF92FF92FC01408150
:103690005181628173812481EDE1F2E185919591FF
:1036A000A591B491481759076A077B0770F56A011D
:1036B0007B01C20ED11CE11CF11C8C159D05AE05D1
:1036C000BF0500F5841B90E09A012358394F3F93C2
:1036D0002F939F938F937F936F935F934F938AED75
:1036E00092E19F938F930E94921B8DB79EB70A968B
:1036F0000FB6F8949EBF0FBE8DBFFF90EF90DF9086
:10370000CF900895822F90E0DFCF80E090E0DCCF73
:103710008EE00E948B1BF894682F70E082E592E0A7
:103720000E9405442F923F925F926F927F928F92F8
:103730009F92AF92BF92CF92DF92EF92FF920F9340
:103740001F93CF93DF93CDB7DEB728970FB6F894CA
:10375000DEBF0FBECDBF80916A028823C1F02896DC
:103760000FB6F894DEBF0FBECDBFDF91CF911F9192
:103770000F91FF90EF90DF90CF90BF90AF909F9010
:103780008F907F906F905F903F902F90089581E091
:1037900080936A028E01015E1F4F2091A00350901A
:1037A0009F032515C0F4452D50E0CD8CDE8C32E012
:1037B000C30ED11CF60184913A01680E711CC3013D
:1037C0008136910554F1821B91098136910560F093
:1037D00010926A02C4CF10929F031092A00340E09F
:1037E00050E0512C20E0E1CF10929F036091A003A4
:1037F000561AE52CF12C70E0615C7C4FA7018FE339
:1038000093E00E9449441092A00350929F0380913C
:10381000C10080628093C100A7019A01215C3C4FE6
:103820007901F601A491A63008F440C1C9010296BD
:10383000CA2ED12CF5E0CF1AD108C80ED91EED8DB5
:10384000FE8D33964491ED8DFE8D34968590949047
:103850005401ED8DFE8D259134912038310508F00D
:103860000AC1BC016F5F7F4F7E836D832F77DC01C0
:103870002C933401640E711C78866F826F8078847B
:10388000A614B70409F441C18D809E80C814D904E0
:1038900048F0F5018491853009F4BFC008F441C0B7
:1038A000883018F086E00E948B1BF801208131815E
:1038B000F6016D807E80E619F709AF01FF0F660BF8
:1038C000770B49835A836B837C83A901330F660B83
:1038D000770B69807A808B809C80641675068606DB
:1038E000970608F4D4C06D807E802FEF621A720AAA
:1038F000AD81BE814C931801B4E02B0E311CF80150
:10390000228133818A01B901863009F4C3C0C30121
:103910000E9440444301800E911E9E828D8281014F
:10392000A6C0823008F4BAC0833009F4E4C0F801BC
:10393000408151813A01812C912C0E5F1F4FD4019F
:10394000C3018096A11DB11D80389105A105B10567
:1039500008F4CEC0A4019301305F4F4F5F4F211593
:1039600030444105510508F43FC0D401C301189605
:103970000097A042B10540F1A40193015C5F2115BD
:1039800031054105504180F0D401C3015CE1B69599
:10399000A795979587955A95D1F78068AD81BE8197
:1039A0008C931196BE83AD83D401C30145E1B695D6
:1039B000A795979587954A95D1F78068AD81BE8187
:1039C0008C931196BE83AD83D401C3013EE0B695BE
:1039D000A795979587953A95D1F78068AD81BE8177
:1039E0008C931196BE83AD83ED81FE813196D40117
:1039F000C30127E0B695A795979587952A95D1F7A6
:103A00008068AD81BE818C939F012F5F3F4F3E83C5
:103A10002D83462D4F7740832AC098012E5F3F4F5C
:103A2000F801A081B1818D819E8101966C91662300
:103A300099F08C159D0580F4FD01319604C0C816DF
:103A4000D90609F453C00196AC0141505109DA017D
:103A50006C9361916111F3CFAC016D807E8046194A
:103A600057094150D3014C939E838D8389012FEFD9
:103A7000A21AB20A03CF0196B901660F672F661F1B
:103A8000770B71956068D70112966C93EACEB401FA
:103A9000A30129CFC3010E942A443CCFD8016D90D5
:103AA0007D908D909C900C5F1F4F49CF1A2FD701AE
:103AB0001C938091080211968C936DEF610FC701E2
:103AC0000E949526E10EF11CF70133979083319601
:103AD000808331968EE78083A52DA10FA0939F034D
:103AE0008091C10080628093C10072CEC601B4CFC4
:103AF000ED81FE8189CFD8014D915C913A01550F3E
:103B0000880899080E5F1F4F1ACF0D811E810E196C
:103B10001F0913E0100FCBCFCF93DF93CDB7DEB7E4
:103B200029970FB6F894DEBF0FBECDBF81EA93E0B0
:103B30009093400280933F02FFB6F8941092800069
:103B400001E000938100E4E8F0E0118210828081BE
:103B50009181C296909389008093880012E016BBF1
:103B600080819181C29690938B0080938A0084E03B
:103B700086BB89E092E00E94953C06BB10936F00E3
:103B8000FFBE9DE088E10FB6F894A8958093600091
:103B90000FBE9093600080E4809360001093C0009B
:103BA00087E090E09093C5008093C40086E0809306
:103BB000C20088EB8093C1008CEE92E19F938F93BB
:103BC0000E94921B0F900F90F89482E592E00E9461
:103BD000E3438C01892B19F478940E94040AF89429
:103BE0000E947F26F62EE72ED82EC92EE2E2F2E0C2
:103BF0008681811101C0078382E292E022E0DC012C
:103C000016962C93169700E012E00D931C93EAE1B0
:103C1000F2E04481558166817781D80114964D93F5
:103C20005D936D937C931797DC011396FC93EE9351
:103C30001297D801ED93FC9382E192E09183808307
:103C40008091840090918500C29690938900809322
:103C5000880026BB10926A020E94E12B8FEF8987B1
:103C600081E1B82E13C0F80143A1407164897589C0
:103C700086890E947D27D80193968C91982F907108
:103C800084FD9B2DF80193A310A2178E67E578E1C0
:103C9000CE0109960E947F2B8C01892B21F78FEF93
:103CA000888709C0DC0195961C921E92949760E06B
:103CB00088960E94D5306EED71E3CE0108960E9481
:103CC0007F2B009779F78FEF8F8302C00E947A35A0
:103CD0006AEC74E3CE0107960E947F2B0097B1F740
:103CE0008FEF8E831FEF0AC090911102828D98137F
:103CF00002C010931102868D8111D1C06AE87BE366
:103D0000CE0106960E947F2BFC01892B69F78FEF6D
:103D10008D8311E004C0FC01258120FDDAC064EB35
:103D20007AE3CE0105960E947F2B0097A1F78FEFD3
:103D30008D830CC09C012D5F3F4FDC0112964C918E
:103D4000129760E08D919C910E942D2860E078E2AE
:103D5000CE0105960E947F2B009761F78FEF8C8331
:103D60000DE119E10BC02FB7F894992711969C9398
:103D70008E932FBF13830283128A118A6CE17AE13A
:103D8000CE0104960E947F2BFC01892B49F0878588
:103D90009089A085B1852285222329F38C93EACFCF
:103DA0008FEF8B8302C00E94862E6AE27EE2CE01F4
:103DB00003960E947F2B0097B1F78FEF8A830FC085
:103DC000F80164857585868540E00E947D27D801CD
:103DD0001F966D917D918C9140E00E947D2763E25A
:103DE0007AE3CE0102960E947F2B8C01892B41F74A
:103DF0008FEF89832FC0F80161857285838540E04C
:103E00000E947D27D8011C966D917D918C9140E098
:103E10000E947D27F80167857089818940E00E94B2
:103E20007D27D80152966D917D918C9140E00E9442
:103E30007D27F80165897689878940E00E947D2782
:103E4000D80158966D917D918C9140E00E947D271C
:103E5000F801108662E67EE3CE0101960E947F2B78
:103E60008C01892B41F689E092E00E94953CE2E2C8
:103E7000F2E081E08683789487811F928F93CF92BE
:103E8000DF92EF92FF9280EE92E19F938F930E94D8
:103E9000921B0FB6F894DEBF0FBECDBF9DCE8F5FD5
:103EA000858F408951896289738980859185A28532
:103EB000B385840F951FA61FB71F808B918BA28B94
:103EC000B38B84839583A683B783CF010E94953CEF
:103ED00015CF23FB442740F94127628173818481F8
:103EE0000E947D271CCFCF93DF93EC016A8D662360
:103EF00009F453C0FC0150E031E020E0A38DB48D03
:103F00004C91958D942309F0532B2F5F330F3396EB
:103F10002613F4CF2C85922F952729F08D858527A0
:103F200080959823D9F4888D5D8787FD03C08150E3
:103F300070F1888F4C815D816E817F818885998544
:103F4000AA85BB85840F951FA61FB71F8C839D83F1
:103F5000AE83BF8381E0DF91CF910895982F909534
:103F600029238523822B8C879E859830E0F621E0DB
:103F7000290F2E87FE01E90FF11D87871092260277
:103F800081E080936B028FEF888F5D87D3CF109293
:103F9000260291E090936B02CCCF50E0BBCF0F9301
:103FA0001F93CF93DF938C016CE070E2FC01808162
:103FB0000E94C92BEC010E94433CF8018481958149
:103FC000A681B7818C839D83AE83BF834085518555
:103FD00062857385488759876A877B8780898D8743
:103FE0008C871E861F8A8EEF888F8485898F87FD38
:103FF00010C0452B462B472B29F4DF91CF911F9101
:104000000F910895CE01DF91CF911F910F910C94E4
:10401000953C82E20E948B1BCF93FC01C481C93086
:10402000B8F44C2F50E09A01220F331F420F531F58
:10403000455E5F4F6CE070E2FC0180810E94A32B23
:10404000FC01C28F23E73FE133832283CF910895A0
:1040500084E20E948B1B0F931F93CF93DF938C01FD
:104060006CE070E2DC018C910E94C92BFC01D8014C
:1040700014969C91828D9817B8F4292F30E0E901AD
:10408000CC0FDD1F2C0F3D1FEF01C20FD31FF80116
:10409000648580850E9444276B8F7C8F8D8FDF9194
:1040A000CF911F910F91089583E20E948B1BFC0119
:1040B0004481558166817781208580810C947D2F94
:1040C000FC01868580FF06C0218932892F5F3F4F22
:1040D000328B218B81FF0DC0DF01A95BBF4F0D909B
:1040E000BC91A02D2C91DF01A75BBF4F9C91922327
:1040F00039F4816086871092260281E080936F02F6
:10410000448155816681778180859185A285B385BB
:10411000840F951FA61FB71F84839583A683B7833B
:1041200081E00895CF93DF93FC0180859185A2857E
:10413000B38521892223F1F0258936892F5F3F4FEE
:10414000368B258B880F991FAA1FBB1F880F991FBD
:10415000AA1FBB1F4481558166817781840F951FFB
:10416000A61FB71F84839583A683B78381E0DF9161
:10417000CF910895C485D58538812685232351F7AD
:1041800021E0218B1092260220936E02880F991F46
:10419000AA1FBB1F880F991FAA1FBB1F880F991F3B
:1041A000AA1FBB1FD7CFCF93DF93FC0182859385D6
:1041B000A485B585218520FF20C0228D338D2F5FFA
:1041C0003F4F338F228F23E02187880F991FAA1F2B
:1041D000BB1F880F991FAA1FBB1F44815581668191
:1041E0007781840F951FA61FB71F84839583A683AD
:1041F000B78381E0DF91CF910895C289D389388157
:104200002489232351F721E021871092260220934D
:104210006D02880F991FAA1FBB1F880F991FAA1F25
:10422000BB1F880F991FAA1FBB1FD7CFFC01928904
:104230009160928B1092260281E080936C0280E064
:1042400008952F923F924F925F926F927F928F923A
:104250009F92AF92BF92CF92DF92EF92FF920F9315
:104260001F93CF93DF931F921F92CDB7DEB73C0110
:1042700062E772E2FC0180810E94C92B4C01FC01C3
:10428000868581FF36C0F8940E947F269B01AC0191
:10429000F401E95BFF4F0190F081E02D9081F40182
:1042A000E75BFF4F808189237894882309F448C015
:1042B000A12CB12C6501E12CF12C8701F301608167
:1042C000C4010F960E94B4260F900F90DF91CF91FA
:1042D0001F910F91FF90EF90DF90CF90BF90AF9024
:1042E0009F908F907F906F905F904F903F902F9016
:1042F00008950E947F261B012C01AE014F5F5F4F86
:1043000068E1F401848595850E94653D09811A81E3
:10431000102701270E947F2603FD0CC0A12CB12C81
:1043200065017B018C01E218F30804091509A2015B
:104330009101C4CF24E0A22EB12CC12CD12CF1CFFD
:1043400064E0A62EB12CC12CD12CB5CF0F931F93B6
:10435000CF93DF938C0162E772E2DC018C910E94C3
:10436000C92BEC01F80180859185A285B385FE01FA
:10437000E15BFF4F80839183A283B383892B8A2BD8
:104380008B2B59F4359711821082C45BDF4F188252
:10439000DF91CF911F910F910895F801848195814C
:1043A000A681B781FE01ED5AFF4F80839183A283DE
:1043B000B3836AEC74E3D8011C968C910E94C92BDC
:1043C000FE01E65BFF4F918380833396D8015096C0
:1043D0008C9150978083319654968C918083C45BE6
:1043E000DF4F86E08883DF91CF911F910F91089571
:1043F0009F92AF92BF92CF92DF92EF92FF920F9374
:104400001F93CF93DF93FC01908064E873E2892DC2
:104410000E94C92BEC01F8940E947F269B01AC01FD
:10442000EC85FD8590818E85892378948823B9F069
:10443000A12CB12C6501E12CF12C8701692DCE0155
:1044400043960E94B426DF91CF911F910F91FF9068
:10445000EF90DF90CF90BF90AF909F90089584E051
:10446000A82EB12CC12CD12CE6CF9F92AF92BF9237
:10447000CF92DF92EF92FF920F931F93CF93DF9330
:10448000FC0190806BEF73E2892D0E94C92BEC0137
:10449000F8940E947F269B01AC01EA89FB899081F8
:1044A0008C89892378948823B9F0A12CB12C6501DB
:1044B000E12CF12C8701692DCE0148960E94B4268B
:1044C000DF91CF911F910F91FF90EF90DF90CF90F0
:1044D000BF90AF909F90089584E0A82EB12CC12C7E
:1044E000D12CE6CF0F931F93CF93DF938C0147E539
:1044F00050E062E772E2FC0180810E94A32BEC0194
:1045000080E690E29B838A8362EA77E2F801848105
:104510000E94C92B9D878C87DF91CF911F910F91AE
:1045200008950F931F93CF93DF938C014BE450E0DA
:1045300061E972E2FC0180810E94A32BEC0186E11B
:1045400091E29B838A8362EA77E2F80184810E9488
:10455000C92B9D878C87DF91CF911F910F91089573
:104560000F931F93CF93DF938C0162E772E2FC01FC
:1045700080810E94C92BEC010E94433C8E858E7F76
:104580008E87F80184819581A681B7810097A10566
:10459000B105F1F088879987AA87BB87188A1F869B
:1045A0001A8A198A1B8AF8940E947F260885198521
:1045B0002A853B85DC01CB01800F911FA21FB31F11
:1045C0008C839D83AE83BF83CE010E94953C7894FB
:1045D000DF91CF911F910F9108950F931F93CF9368
:1045E000DF938C0164E873E2FC0180810E94C92B97
:1045F000EC010E94433C198AF80184819581A681CF
:10460000B78188879987AA87BB87892B8A2B8B2BB1
:10461000D1F01C8A1B8A1E8A1D8A1F8AF8940E9468
:104620007F26088519852A853B85DC01CB01800F13
:10463000911FA21FB31F8C839D83AE83BF83CE01C6
:104640000E94953C7894DF91CF911F910F9108952E
:104650000F931F93CF93DF93FC01C081D18112810F
:10466000038162E772E28C2F0E94C92BFC01ED5A94
:10467000FF4F23812F9322812F9321812F9320811C
:104680002F933797808182FB882780F91F928F9321
:104690000F931F93DF93CF938EE692E19F938F93B7
:1046A0000E94921B8DB79EB70C960FB6F8949EBFD2
:1046B0000FBE8DBFDF91CF911F910F910895EF92A3
:1046C000FF920F931F93CF93DF93EC010E9472220E
:1046D00062E772E288810E94C92B8C017C0187E429
:1046E000E80EF11C61E088850E944427F701608391
:1046F0007183828382E0F8018687DF91CF911F91D9
:104700000F91FF90EF9008950F931F93CF93DF9336
:104710008C014BE450E064E873E2FC0180810E946C
:10472000A32BEC0182E990E29B838A83198A64EBD4
:104730007AE3F80184810E94C92B988B8F8760E00F
:10474000F80180850E9444276C877D878E87DF91E2
:10475000CF911F910F9108950F931F93CF93DF93E4
:104760008C016BEF73E2FC0180810E94C92BEC018C
:104770000E94433C19861E861F86188A198AF801F2
:1047800084819581A681B7818A879B87AC87BD8705
:10479000892B8A2B8B2B29F16D897E898F8940E0AB
:1047A0000E947D27198E188E1B8E1A8E1C8EF894EF
:1047B0000E947F260A851B852C853D85DC01CB0167
:1047C000800F911FA21FB31F8C839D83AE83BF8375
:1047D000CE010E94953C7894DF91CF911F910F916B
:1047E00008956D897E898F8941E0DF91CF911F9176
:1047F0000F910C947D270F931F93CF93DF93EC01C0
:1048000040E550E06BEF73E288810E94A32B8C019E
:1048100083ED90E2F801938382838C819FEF980F60
:104820009430C8F4F801808761E088850E944427AD
:10483000F801628B738B848B60E08C850E94282545
:10484000F801658B768B878B41E0DF91CF911F91CB
:104850000F910C947D278EE20E948B1B2F923F922A
:104860004F925F926F927F928F929F92AF92BF9280
:10487000CF92DF92EF92FF920F931F93CF93DF932C
:1048800000D01F921F92CDB7DEB73C0161E972E202
:10489000FC0180810E94C92B4C018AE38B838E012D
:1048A0000C5F1F4F21E0AE014D5F5F4F61E0F401EF
:1048B000848595850E9499410E9400168C8184FF11
:1048C00006C0F401858996890196968B858B82E7CF
:1048D0008D830E947F261B012C018E010F5F1F4FCD
:1048E00022E0AE014B5F5F4F61E0F4018485958566
:1048F0000E9499410E9400160E947F2629812F71F3
:10490000A22EB12CBA2CAA242A81A22A0B2C000C8C
:10491000CC08DD087B018C01E218F30804091509B5
:10492000A2019101F3016081C40143960E94B42663
:104930000F900F900F900F900F90DF91CF911F91DC
:104940000F91FF90EF90DF90CF90BF90AF909F902E
:104950008F907F906F905F904F903F902F90089531
:104960000F931F93CF93DF93EC01F8940E947F265F
:10497000088519852A853B85DC01CB01800F911FB5
:10498000A21FB31F8C839D83AE83BF83CE010E9481
:10499000953C7894DF91CF911F910F9108950F93DB
:1049A0001F93CF93DF938C0161E972E2FC01808158
:1049B0000E94C92BEC010E94433C1A8AF8018481B1
:1049C0009581A681B7810097A105B10529F4DF91F2
:1049D000CF911F910F91089588879987AA87BB87E8
:1049E0001C8A1B8A1E8A1D8A1F8A1F861E86198A98
:1049F000188ACE01DF91CF911F910F910C94B024B2
:104A0000B0990FC08091700290917102019610923E
:104A10000E0210920D029093100280930F0281E01B
:104A2000089581E086BB8091700290917102019699
:104A3000909371028093700220E030E830930E0270
:104A400020930D029093100280930F0281E008954D
:104A5000803678F5E82FE695E695E695F0E0EE0FDE
:104A6000FF1FEE50FD4EA591B491109711F1877084
:104A700021E030E0A90102C0440F551F8A95E2F7FA
:104A8000CA013FB7F89412962C91129761110FC08A
:104A90004095242312962C93129711962C911197DE
:104AA000282B11962C9311973FBFBD010895242BFD
:104AB000F1CF83E30E948B1B1F920F920FB60F92D0
:104AC00011240BB60F92EF92FF920F931F932F9327
:104AD0003F934F935F936F937F938F939F93AF9386
:104AE000BF93CF93DF93EF93FF930DC07A01809133
:104AF0008400909185008E199F0997FD7CC0789461
:104B0000B2999AC0F894C0912202D0912302EA810E
:104B1000FB81309709F0ACC0EA8DFB8D2C8D208392
:104B20008E859F85019709F4D2C09F878E878885DF
:104B30009985AA85BB854C815D816E817F81480FF7
:104B4000591F6A1F7B1F4C835D836E837F83208385
:104B50002CA525FF0EC00C851D85012E000C220BF7
:104B6000330B800F911FA21FB31F88879987AA87D5
:104B7000BB87E881F9810481158126813781872FE0
:104B8000401751076207830B87FDB0CF7801F09380
:104B90002302E0932202A0912402B09125021496F0
:104BA0000D911D912D913C911797872F401751071B
:104BB0006207830B87FFFD01DF010190F081E02D8B
:104BC0000481158126813781872F4017510762079D
:104BD000830B87FFF1CFF983E883CD93DC93D093E8
:104BE0002502C093240280918400909185008E1943
:104BF0009F0997FF84CF863A9F4F0CF07BC0F092BD
:104C00008900E0928800FF91EF91DF91CF91BF91F1
:104C1000AF919F918F917F916F915F914F913F9154
:104C20002F911F910F91FF90EF900F900BBE0F905F
:104C30000FBE0F901F901895F8948091840090916A
:104C400085009701281B390B2038314C0CF44BC0E0
:104C50002091270227FD29C09C012854344F30930E
:104C60008B0020938A0024E026BB7C01F394C7CFFD
:104C7000CE0119954C815D816E817F81811179CF43
:104C8000E881F981E480F580F0932302E093220229
:104C90008091240290912502C817D90709F027CFE7
:104CA000F0932502E093240222CF20912602209344
:104CB00027029C01205C304E30938B0020938A00A9
:104CC00024E026BB909389008093880010CFCE010A
:104CD0000E943432EA8DFB8D9C8D90834C815D81E6
:104CE0006E817F81CBCF209128022111B1CF81E34A
:104CF0000E948B1B7894B2999FCFF894F8CE2FB76F
:104D0000F894609184007091850080917002909178
:104D10007102B09902C02FBF08952FBF7F3FE1F30A
:104D20000196089578940E948C1D2FEF260F66231C
:104D3000C1F0FC018FEF9FEF31918327082E829500
:104D4000807F8025092E982F82958F700826869562
:104D500098278927880F880F880F8025215060F7B2
:104D600008958FEF9FEF08956F927F928F929F9299
:104D7000AF92BF92CF92DF92EF92FF920F931F9369
:104D8000FC0183818F9382818F9384813501460159
:104D9000680E711C811C911CD401C301BF93AF9399
:104DA0009F936F9281818F9380818F931F930F9335
:104DB000FF92EF925F934F933F932F931F926F93C6
:104DC00082E692E19F938F930E94921B8DB79EB7CC
:104DD00044960FB6F8949EBF0FBE8DBF1F910F91E2
:104DE000FF90EF90DF90CF90BF90AF909F908F900B
:104DF0007F906F900895CF92DF92EF92FF926B01B8
:104E00007C0109C00E947F26292F6C157D058E0527
:104E10002F0927FF09C08091BC0087FFF3CFFF90C7
:104E2000EF90DF90CF90089587E30E948B1B24EAD8
:104E30002093BC000E94FB268091B90090E0A0E086
:104E4000B0E080319105A105B10521F00897A105D9
:104E5000B10509F4089586E30E948B1BFB012FB76F
:104E6000F8949281141644F4982B80959283918142
:104E7000892381832FBF0895809598239283918100
:104E8000892381832FBF08958036A0F567FD32C046
:104E9000E82FE695E695E695F0E0EE0FFF1FEE5061
:104EA000FD4EA591B491109729F1877021E030E073
:104EB000A90102C0440F551F8A95E2F7CA014FB7F6
:104EC000F89412963C911297662381F0382B282F84
:104ED000209512963C93129711963C91119723239B
:104EE00011962C9311974FBFBD010895282F20953F
:104EF0003223EFCF82E30E948B1BFB012FB7F89484
:104F00009281411105C08095892382832FBF089526
:104F1000892B82832FBF0895FB012FB7F8949281CC
:104F2000411109C0382F3095932392839181892BA9
:104F300081832FBF0895982B92839181892B818340
:104F40002FBF089543E050E062EA77E2FC018081E0
:104F50000C94A32B8F929F92AF92BF92FF920F93CC
:104F60001F93CF93DF938C01FC0184858F77F82EFC
:104F700062EA77E280810E94C92BEC01F80184810A
:104F80009581A681B781892B8A2B8B2BB1F58091D6
:104F9000BC0082FF10C08F2D880F88838A818260B9
:104FA0008A83DF91CF911F910F91FF90BF90AF90B7
:104FB0009F908F900895F80180849184A284B38497
:104FC00061E089E10E94282561E088E10E942825AE
:104FD0001092B900F0E88F16FAE19F06F6E0AF06EE
:104FE000B10438F488E48093B80084E08093BC0076
:104FF000D2CF8CE08093B800F8CF88E30E948B1B5F
:10500000CF92DF92FF920F931F93CF93DF93EC0128
:1050100064EB7AE38C810E94C92B6C01F8840F2D1C
:1050200010E0A8014D5F5F4F60E078E288810E9448
:10503000A32BFC01D182C082F2826C857D85A80100
:105040000396DF91CF911F910F91FF90DF90CF904A
:105050000C9440448BE10E948B1B6F927F928F9245
:105060009F92AF92BF92CF92DF92EF92FF920F93F7
:105070001F93CF93DF934C01E62E142F6901DC01BF
:1050800015967C901597872D867009F451C071FC98
:1050900039C0F401908181819CBD8DBDF72DF170E7
:1050A0006F2E70FCC8C0EE2009F49CC08FEF810FFA
:1050B000112351F0F60190819EBD0DB407FEFDCF86
:1050C0009EB591938150B8F7662091F1072D069512
:1050D00006950695402F40954170D40112966D912A
:1050E0007D918C91DF91CF911F910F91FF90EF9067
:1050F000DF90CF90BF90AF909F908F907F906F90F8
:105100000C947D27ED91FC914185427066817781F9
:1051100080850E947D27B72DB1706B2E70FC17C063
:10512000D401CD91DC91AA24AA94A10E111126C01C
:10513000DF91CF911F910F91FF90EF90DF90CF9073
:10514000BF90AF909F908F907F906F900895072DA4
:10515000069506950695402F4170F4016281738192
:1051600084810E947D27D401CD91DC91AA24AA9448
:10517000A10E112309F4AECF66246394B12C8FEFF6
:10518000A81AB80AAC0CBD1CD601FC9008E010E0CF
:10519000898580FF35C0EE81FF81888580834F2D12
:1051A00040786B817C818D810E947D27FF0CEE8190
:1051B000FF8188858083110FE881F98190818A8140
:1051C000892391E009F490E0192B015009F7EE20B2
:1051D00011F0F6011083FFEFCF1ADF0AAC14BD0403
:1051E00099F672CFF6019601210F311D2E173F0758
:1051F00009F46ACF81918EBD0DB407FEFDCFF6CFC5
:105200004F2D40786B817C818D810E947D27FF0C22
:10521000EE81FF8188858083110FE881F98190817B
:105220008A81892391E009F490E0192BEE81FF81B6
:1052300088858083CACF73FA442740F9F4016281DC
:10524000738184810E947D27662463942CCFCF9341
:10525000DF93EC0164EB7AE388810E94C92B2885F7
:1052600039854C8160E0DF91CF910C942D28FF921D
:105270000F931F93CF93DF93EC01188164EB7AE3D4
:10528000812F0E94C92B0C81F884C9852F2D3C2FBA
:10529000402F61E00E942D28CF93FF921F920F9321
:1052A0001F921F9388E992E19F938F930E94921B14
:1052B0008DB79EB708960FB6F8949EBF0FBE8DBFF0
:1052C000DF91CF911F910F91FF900895FC011092F3
:1052D000260281E080937202818D8160818F4481FA
:1052E00055816681778180859185A285B385840FFC
:1052F000951FA61FB71F84839583A683B78381E07C
:1053000008950F931F93CF93DF938C0163EC79E2A1
:10531000FC0180810E94C92BEC010E94433CF801F2
:1053200084819581A681B7818C839D83AE83BF8361
:1053300080859185A285B38588879987AA87BB8751
:10534000892B8A2B8B2B29F4DF91CF911F910F9101
:10535000089584859585A685B7858C879D87AE87BA
:10536000BF8780899189A289B389888B998BAA8B01
:10537000BB8B84898E8B1F8ACE01DF91CF911F91C9
:105380000F910C94953CFF920F931F93CF93DF9353
:10539000EC01F88483E08F15E0F04AE150E063EC23
:1053A00079E288810E94A32B8C0186E699E2F801BC
:1053B0009383828364EB7AE38C810E94C92BF8018A
:1053C000958B848BF08EDF91CF911F910F91FF9081
:1053D000089589E20E948B1BEF92FF920F931F9317
:1053E000CF93DF938C0162EA77E2FC0180810E9417
:1053F000C92B7C018FE090E00E94AB3FEC0188E874
:1054000093E19E878D87F8018089880F8C8761E002
:1054100084810E9444276E837F83888761E0F8013E
:1054200084810E942825688379838A8361E0F8015A
:1054300080850E94442769877A878B8761E0F8011D
:1054400080850E9428256B837C838D83F701D1831F
:10545000C083828181608283DF91CF911F910F9100
:10546000FF90EF9008958F929F92AF92BF92CF924C
:10547000EF920F931F93CF93DF93EC0148015901F3
:105480001F92EF92BF92AF929F920F937F936F9371
:105490005F934F931F92CF9284E792E19F938F93F4
:1054A0000E94921B8DB79EB70E960FB6F8949EBFC2
:1054B0000FBE8DBFE11009C08C859D85AE85BF856F
:1054C00088169906AA06BB0688F48F898F5F8F8B92
:1054D0009E898917B0F4DF91CF911F910F91EF90C2
:1054E000CF90BF90AF909F908F90089588899989B1
:1054F000AA89BB8988159905AA05BB0530F31F8ABF
:10550000EACF809128028111FACF88E20E948B1B9A
:10551000CF92DF92EF92FF92CF93DF93EC010E9444
:105520007F266B017C019E01A0E8BEE30E94C94377
:1055300020E432E44FE050E00E94A043C20ED31EAC
:10554000E12CF12C0E947F266C157D058E059F05B0
:10555000C8F3DF91CF91FF90EF90DF90CF90089547
:10556000CF93DF93EC016B817C818D8140E00E94C1
:105570008C278D859E850E94882A6E817F818885F3
:1055800041E00E942E278D859E850E94882A69858C
:105590007A858B8541E0DF91CF910C942E270F9374
:1055A0001F93CF93DF93EC01062F18E01DC06B8192
:1055B0007C818D8140E00E948C27000F8D859E8527
:1055C0000E94882A6E817F81888541E00E942E2773
:1055D0008D859E850E94882A688179818A8140E034
:1055E0000E948C27115049F007FFE1CF69857A8529
:1055F0008B8541E00E942E27E0CF69857A858B85D7
:1056000041E00E942E278D859E850E94882A6E810A
:105610007F81888541E00E942E27E985FA851081E7
:105620008B8518238D859E850E94882A68817981C3
:105630008A8140E00E948C2769857A858B8541E0CC
:105640000E942E2781E090E0111102C080E090E0DE
:10565000DF91CF911F910F9108951F93CF93DF9307
:10566000EC01162F8D859E850E94882A69857A8592
:105670008B8541E00E942E276E817F81888541E0E5
:105680000E942E278D859E850E94882A6B817C81B1
:105690008D8140E00E948C278D859E850E94882AFE
:1056A000688179818A8140E00E948C27612FCE0138
:1056B0000E94CF2A8130910511F483E090E0DF91C0
:1056C000CF911F910895CF9320917402309175026C
:1056D000232B91F4FC01C0818C2F90E0880F991F3F
:1056E000880F991F0E94AB3F9093750280937402BC
:1056F000C0937302CF9108958AE00E948B1BCF93D1
:10570000DF93EC01988140917302A0917402B091F3
:1057100075020BC0FD0184E0989FE00DF11D11247E
:10572000208131812617370741F09F5F941790F34E
:1057300080E090E0DF91CF910895988382819381FA
:10574000DF91CF910895CF93DF93909173028917E2
:10575000E8F4C0917402D091750294E0899FC00D65
:10576000D11D112488819981892B81F48091440273
:1057700090914502892B51F479836883CA010E9474
:10578000AB3F9B838A83DF91CF9108958BE00E948A
:105790008B1B90917302891788F4E0917402F09149
:1057A000750294E0899FE00DF11D112480819181A3
:1057B0008617970719F48281938108958CE00E94DF
:1057C0008B1BCF92DF92EF92FF92CF93DF93C0912A
:1057D0004402D09145022097B9F121976E01E12C46
:1057E000F12CA0914302B0E02097D9F020E030E006
:1057F00040E050E0BA018091410290914202FC01E8
:10580000E20FF31F4F5F5F4F6F4F7F4F2A0F3B1F1A
:10581000820F931F918380834C155D056E057F0574
:1058200050F38091410290914202CA9FF001CB9FB8
:10583000F00DDA9FF00D1124E80FF91F118210828C
:1058400090933E0280933D02DF91CF91FF90EF90C5
:10585000DF90CF900895FC01138212821182108292
:105860006F3F710509F07CF48091440290914502EC
:10587000892B49F48091430290E08617970714F42E
:105880006093430208950E94881BCF92DF92EF92AB
:10589000FF92CF93DF93FC01A085B18582858C9325
:1058A000968581E089278687C82FC170C688D788EA
:1058B000E08CF18C97859F5FD1899D1708F05FC0C0
:1058C000892F869586958695DF01A80FB11D5A967A
:1058D0002C9130E0892F877002C0359527958A95E5
:1058E000E2F72170B701A601C217A9F033C0892FD2
:1058F000869586958695DF01A80FB11D5A962C9145
:1059000030E0892F877002C0359527958A95E2F798
:105910002170C2131FC04C0D5D1D6E1D7F1D9F5F4A
:105920009D1728F38AE39FE2938382838481958184
:10593000A681B781480F591F6A1F7B1F4483558377
:105940006683778381E0DF91CF91FF90EF90DF90C6
:10595000CF900895978784819581A681B781480F5C
:10596000591F6A1F7B1F448355836683778381E0B9
:10597000DF91CF91FF90EF90DF90CF900895B70126
:10598000A601D0CF6F927F928F92CF92DF92EF924B
:10599000FF92CF93DF93EC0160E08C810E94282579
:1059A0003B01882EC884D984EA84FB84D7FC24C0B8
:1059B000A601415F5F4F62EC7CE288810E94A32BCD
:1059C000FC01608271828282D686C5868C859D8527
:1059D0009483838388899989AA89BB8981879287DF
:1059E000A387B487DF91CF91FF90EF90DF90CF90A6
:1059F0008F907F906F90089587E20E948B1BCF92CB
:105A0000DF92EF92FF920F931F93CF93DF93EC01FE
:105A1000E885F9858A8580830E947F263E8521E07E
:105A200023272E872F852F5F2F87213009F45CC015
:105A30002530E0F40C811D812E813F814A895B89EC
:105A40006C897D89DB01CA01800F911FA21FB31FE2
:105A50008C839D83AE83BF8381E0DF91CF911F91C3
:105A60000F91FF90EF90DF90CF900895CC80DD8074
:105A7000EE80FF80AB01BC014C195D096E097F0906
:105A80008E899F89A88DB98D481B590B6A0B7B0B9A
:105A9000DB01CA010296A11DB11DB7FD34C0B59549
:105AA000A79597958795B595A795979587950A8911
:105AB0001B892C893D89800F911FA21FB31F8E8BDC
:105AC0009F8BA88FB98F25E43CE23B832A834C0D42
:105AD0005D1D6E1D7F1D840F951FA61FB71F8C8334
